:100000000C945D000C9485000C9485000C94850084
:100010000C9485000C9485000C9485000C9485004C
:100020000C9485000C9485000C9485000C9485003C
:100030000C9485000C9485000C9485000C9485002C
:100040000C9465050C9485000C9485000C94850037
:100050000C9485000C9485000C9485000C9485000C
:100060000C9431040C94850000000008000201008B
:100070000003040700000000000000000102040863
:100080001020408001020408102001020408102002
:10009000040404040404040402020202020203032E
:1000A0000303030300000000250028002B000000CC
:1000B0000000240027002A00D80311241FBECFEF20
:1000C000D4E0DEBFCDBF11E0A0E0B1E0EAE5FEE0A4
:1000D00002C005900D92A231B107D9F722E0A2E14A
:1000E000B1E001C01D92AD39B207E1F710E0CAEBF3
:1000F000D0E004C02297FE010E941107C83BD1073F
:10010000C9F70E94EB060C942B070C940000CF93C8
:1001100060E170E083E992E00E945E05C82F61E132
:1001200070E083E992E00E945E052C2F30E0322FD0
:100130002227280F311D30931C0120931B0162E1FF
:1001400070E083E992E00E945E05C82F63E170E0F1
:1001500083E992E00E945E052C2F30E0322F2227A7
:10016000280F311D30931E0120931D0164E170E0C2
:1001700083E992E00E945E05C82F65E170E083E9A3
:1001800092E00E945E052C2F30E0322F2227280FAC
:10019000311D3093200120931F01CF910895CF93FB
:1001A000DF93CBE1D1E0498160E170E083E992E047
:1001B0000E946105488161E170E083E992E00E945C
:1001C0006105CDE1D1E0498162E170E083E992E02F
:1001D0000E946105488163E170E083E992E00E943A
:1001E0006105CFE1D1E0498164E170E083E992E00B
:1001F0000E946105488165E170E083E992E0DF914A
:10020000CF910C9461050F931F93CF93DF9380914F
:100210001301811116C027E231E080E090E0F9017E
:10022000E80FF91F11821082029688329105B9F702
:10023000285D3F4F81E02F39380779F781E08093BF
:1002400013018EE00E9435069093C8018093C70188
:100250008FE00E9435069093CA018093C90180E126
:100260000E9435069093CC018093CB0181E10E94DE
:1002700035069093CE018093CD0160911201262F17
:1002800030E0F901EE0FFF1FE95DFE4F4091C7011D
:100290005091C80151834083F901EE0FFF1FE15BCC
:1002A000FE4F4091C9015091CA0151834083F90129
:1002B000EE0FFF1FE958FE4F4091CB015091CC014A
:1002C00051834083F901EE0FFF1FE156FE4F9183EA
:1002D0008083643121F06F5F6093120102C010923D
:1002E0001201E7E2F1E0C1E2D1E004E110E020E038
:1002F00030E080E090E0DF01A20FB31F4D915C91F0
:10030000840F951F2E5F3F4F28323105A1F7B801AA
:100310000E94FB0669937993B89681E0C932D807A9
:1003200031F72091270130912801220F331FC5E1B9
:10033000D1E0E1E2F1E018E341915191149FC00155
:10034000159F900D1124B901641B750B0E94FB06CB
:100350006993799381E0E732F80771F7DF91CF91E4
:100360001F910F910895CF93DF9361E088E00E9481
:10037000B40660E089E00E94B406C4EFD1E00E94B8
:1003800003016AE070E080E090E00E94D2052197CE
:10039000B1F7809115019091160190931C01809303
:1003A0001B01809117019091180190931E01809379
:1003B0001D018091190190911A0190932001809361
:1003C0001F0160E088E00E94B40661E089E0DF91EF
:1003D000CF910C94B40661E088E00E947B0661E056
:1003E00089E00E947B0660E088E00E94B40661E03C
:1003F00089E00E94B40660E070E083E992E00E9428
:100400005E058035B1F084E08093CF0144E061E087
:1004100070E083E992E00E9461050E94B3010E94AE
:10042000CF0040E560E070E083E992E00E94610562
:100430000AC061E070E083E992E00E945E0580936B
:10044000CF010E9487006091CF0180ED91E00E9472
:10045000BB0367E472E080ED91E00E94CE036EE89A
:1004600072E080ED91E00C94D3038091140181300F
:1004700031F40E94B3010E94CF00109214010E9437
:1004800003016AE070E080E090E00C94D205CF9325
:10049000DF938130910501F580ED91E00E94F30238
:1004A00080930001813251F0823291F0803299F5CF
:1004B00060E088E00E94B40661E005C061E088E089
:1004C0000E94B40660E089E0DF91CF910C94B406FD
:1004D00081E0809314011FC00297E9F480ED91E060
:1004E0000E94F302EC0180ED91E00E94F302A397D9
:1004F00091F48093CF01482F4F7761E070E083E95A
:1005000092E00E9461056091CF0180ED91E0DF9162
:10051000CF910C94BB03DF91CF910895CF93DF93DC
:1005200000D000D0CDB7DEB780910001833039F123
:1005300070F48130D9F0823009F046C0898380910F
:100540001701909118019A838B838E5F32C082319C
:10055000F9F0833131F18131B9F5898380911B0143
:1005600090911C019A838B838F5E23C08983809135
:100570001501909116019A838B838F5F1AC089832E
:100580008091190190911A019A838B838D5F11C01C
:10059000898380911D0190911E019A838B838E5EC9
:1005A00008C0898380911F01909120019A838B83D9
:1005B0008D5E890F8C8344E050E0BE016F5F7F4FFA
:1005C00080ED91E00E9445030F900F900F900F90E7
:1005D000DF91CF9108958091030290E02091040271
:1005E000821B91090895209104028091030228172B
:1005F00050F4E22FF0E0EB5FFD4F808190E02F5F41
:100600002093040208958FEF9FEF0895E091040274
:1006100080910302E81730F4F0E0EB5FFD4F80813A
:1006200090E008958FEF9FEF08950895E091DC0129
:10063000F091DD013097E1F0309104022091030246
:100640003217B0F040E0242F30E02617370754F47B
:10065000DC01A20FB31F5C91D901AB5FBD4F5C936E
:100660004F5FF1CF1092040260930302CB01099413
:100670000895E091DE01F091DF01309729F01092AA
:10068000E2011092E10109940895CF92DF92EF9276
:10069000FF920F931F93CF93DF937C01CB018A01CD
:1006A0002091E001222389F0EB016B01C40ED51EDD
:1006B000CC15DD0569F06991D701ED91FC910190B0
:1006C000F081E02DC7010995F3CF642F0E94FE034E
:1006D000C801DF91CF911F910F91FF90EF90DF90B4
:1006E000CF900895CF93DF931F92CDB7DEB7698384
:1006F0002091E0012223D1F02091E101203240F04D
:1007000021E030E0FC013383228380E090E015C0DB
:100710008091E201E82FF0E0ED51FE4F9981908346
:100720008F5F8093E2018093E10105C061E0CE011B
:1007300001960E94FE0381E090E00F90DF91CF913F
:100740000895FC011382128248EE53E060E070E0ED
:10075000448355836683778386E091E09183808329
:10076000089510920402109203021092E201109276
:10077000E1010C94DC03CF93DF93EC01862F0E9400
:10078000FA0389E393E00E941C0486E193E00E944F
:100790001704CE01DF91CF910C94B1037093DD016A
:1007A0006093DC0108957093DF016093DE0108958A
:1007B00080ED91E00C94A1031092920281E080936D
:1007C000900210928F0261E082E10E94B40661E023
:1007D00083E10E94B406E9EBF0E080818E7F8083A4
:1007E00080818D7F808388E48093B80085E4809346
:1007F000BC000895880F8093BA000895613298F480
:1008000020919202243089F460934702FC0189E42C
:1008100092E0DC012A2F281B261718F421912D9332
:10082000F9CF80E0089581E0089582E008959093E3
:100830008C0280938B02089590938E0280938D0298
:10084000089585ED8093BC008091BC0084FDFCCFB1
:1008500010929202089585EC8093BC00109292024F
:1008600008951F920F920FB60F9211242F933F936A
:100870004F935F936F937F938F939F93AF93BF93A8
:10088000EF93FF938091B900887F803609F49CC074
:1008900068F5883209F45BC090F4803109F454C0E3
:1008A00038F4882309F4F5C0883009F44DC0F5C048
:1008B000883109F44CC0803209F45DC0EEC0803448
:1008C00009F468C048F4803309F455C0883309F04E
:1008D000E4C080932502A8C0803509F44FC0883554
:1008E00009F45DC0883409F0D8C0D5C0883909F44E
:1008F000C6C0A8F4883709F467C038F4883609F40C
:1009000063C0803709F460C0C8C0883809F4B7C034
:10091000803909F45FC0803809F0BFC05BC0803BFC
:1009200009F485C038F4803A09F466C0883A09F4BD
:100930007EC0B3C0803C09F4A6C0883C09F4A3C0C3
:10094000883B09F489C0A9C08091910210C09091A0
:100950006A0280916902981770F5E0916A0281E05D
:100960008E0F80936A02F0E0E559FD4F80818093FD
:10097000BB0085EC85C0809325028DC0E0916A02A2
:1009800081E08E0F80936A028091BB00F0E0E55910
:10099000FD4F808390916A02809169026DC0E09161
:1009A0006A0281E08E0F80936A028091BB00F0E0C2
:1009B000E559FD4F80838091900281116CC081E0E8
:1009C00080938F0284EA60C083E080939202109249
:1009D0002602CFCF80912602803208F050C0E091ED
:1009E000260281E08E0F809326028091BB00F0E00A
:1009F000E95DFD4F8083BDCF80912602803230F4C7
:100A0000E0912602F0E0E95DFD4F10820E94210492
:100A10006091260270E0E0918B02F0918C0287E2F7
:100A200092E00995109226020E942B0436C084E0C1
:100A3000809392021092480210924702E0918D0238
:100A4000F0918E02099580914702811105C081E0E5
:100A50008093470210924902E091480281E08E0F94
:100A600080934802F0E0E75BFD4F80818093BB00FC
:100A70009091480280914702981708F47ACF85E850
:100A80008093BC000AC085EC8093BC001092920257
:100A900004C0109225020E942104FF91EF91BF91A2
:100AA000AF919F918F917F916F915F914F913F9106
:100AB0002F910F900FBE0F901F901895CB010C94A3
:100AC0001507CB01642F0C941D071F920F920FB6D0
:100AD0000F9211242F933F938F939F93AF93BF93C4
:100AE0008091950290919602A0919702B091980200
:100AF0003091940223E0230F2D3720F40196A11D9D
:100B0000B11D05C026E8230F0296A11DB11D20933B
:100B100094028093950290939602A0939702B093CB
:100B200098028091990290919A02A0919B02B091B3
:100B30009C020196A11DB11D8093990290939A0287
:100B4000A0939B02B0939C02BF91AF919F918F9114
:100B50003F912F910F900FBE0F901F9018953FB7A8
:100B6000F8948091990290919A02A0919B02B09181
:100B70009C0226B5A89B05C02F3F19F00196A11D28
:100B8000B11D3FBF6627782F892F9A2F620F711DE5
:100B9000811D911D42E0660F771F881F991F4A959E
:100BA000D1F70895CF92DF92EF92FF92CF93DF9328
:100BB0006B017C010E94AF05EB01C114D104E1047B
:100BC000F10489F00E94FA060E94AF056C1B7D0BB0
:100BD000683E734090F381E0C81AD108E108F1083B
:100BE000C851DC4FEACFDF91CF91FF90EF90DF90BB
:100BF000CF900895789484B5826084BD84B5816077
:100C000084BD85B5826085BD85B5816085BDEEE614
:100C1000F0E0808181608083E1E8F0E010828081F3
:100C200082608083808181608083E0E8F0E0808161
:100C300081608083E1EBF0E0808184608083E0EB81
:100C4000F0E0808181608083EAE7F0E08081846069
:100C500080838081826080838081816080838081C5
:100C6000806880831092C10008958E3008F08E5005
:100C700087702091010190E4299F90011124822B1B
:100C800080937C0080917A00806480937A008091C8
:100C90007A0086FDFCCF809178002091790090E069
:100CA000922B0895833081F028F4813099F08230BE
:100CB000A1F008958730A9F08830B9F08430D1F4DC
:100CC000809180008F7D03C0809180008F7780931A
:100CD0008000089584B58F7702C084B58F7D84BD70
:100CE00008958091B0008F7703C08091B0008F7D10
:100CF0008093B0000895CF93DF9390E0FC01E45817
:100D0000FF4F2491FC01E057FF4F8491882349F164
:100D100090E0880F991FFC01E255FF4FA591B49117
:100D20008C559F4FFC01C591D4919FB7611108C0AC
:100D3000F8948C91209582238C93888182230AC019
:100D4000623051F4F8948C91322F309583238C9338
:100D50008881822B888304C0F8948C91822B8C9399
:100D60009FBFDF91CF9108950F931F93CF93DF9390
:100D70001F92CDB7DEB7282F30E0F901E859FF4FB9
:100D80008491F901E458FF4F1491F901E057FF4FA6
:100D900004910023C9F0882321F069830E94520640
:100DA0006981E02FF0E0EE0FFF1FEC55FF4FA5919A
:100DB000B4919FB7F8948C91611103C01095812371
:100DC00001C0812B8C939FBF0F90DF91CF911F911A
:100DD0000F91089508950E94FA050E94EA060E9464
:100DE000EB01C0E0D0E00E9435022097E1F30E94C1
:100DF0000000F9CF0895AA1BBB1B51E107C0AA1F31
:100E0000BB1FA617B70710F0A61BB70B881F991FAB
:100E10005A95A9F780959095BC01CD010895EE0FE4
:100E2000FF1F0590F491E02D0994F999FECF92BD32
:100E300081BDF89A992780B50895262FF999FECF9C
:100E40001FBA92BD81BD20BD0FB6F894FA9AF99AE7
:0A0E50000FBE01960895F894FFCF3D
:100E5A00FF010000000072034503EB02F3020603E0
:020E6A0015036E
:00000001FF
